:1000000000308A00AA280000FF00030E8301A1002F
:100010000A08A0008A010408A2007708A300780853
:10002000A4007908A5007A08A600831383120B1E8A
:100030001B288B182C28220884002308F70024088A
:10004000F8002508F9002608FA0020088A00210E89
:100050008300FF0E7F0E09008A110A1266282C30D9
:10006000840083130008031943280130F800F701C6
:10007000F70B3828F80B37284A30F700F70B3E28E3
:100080004128800B352808008316081083120814B5
:1000900083168810831288108316081183120811A2
:1000A000831688118312881508008316081083129E
:1000B000081483168810831288148316081183127B
:1000C00008118316881183128811080083160812FC
:1000D00083120816831686148312861884288316C2
:1000E00006158312061984285030AB00FA30AC0094
:1000F0002F20AB0B7628831686158312861D822847
:1001000044207B2855209328831686158312861D4C
:100110008B284420842855205030AB00FA30AC00A6
:100120002F20AB0B8E288B108A110A121B288316E6
:1001300008108312081083168810831288148316FF
:1001400008118312081583168811831288118A11E9
:100150000A12DF2803081F39830083161F149F1417
:100160001F159F1107309C0083138113D030831219
:100170008B04831686158312861DC0284420B92857
:100180005520831608128312081283160614831250
:10019000281006182814831686148312A8108618AF
:1001A000A81483160615831228110619281583161C
:1001B00086158312A8118619A815A818FB2883167E
:1001C00006158312061DE6289728DF285520503093
:1001D000A900A7018B1BA7178B13FA30AC002F20A7
:1001E000A71B8B17A90BE928831686158312861D7A
:0A01F000FB284420F428C028630017
:02400E00313F40
:00000001FF
;PIC16F877A
;CRC=3AC9  CREATED="18-abr-21 23:50"
